:020000020000FC
:2000000034044000148C40083A6800080000000000000000000000000000000000000000D6
:2000200004EDFFDE1500C0DF150240D8150380D81504C0D8150500D9150640D9150780D952
:200040001508C0D97A300B00150900DA150A40DA150B80DA150CC0DA150D00DB150E40DB94
:20006000150F80DB1510C0DB151140D904FFFFEB1512C0DB3A3109004C00802826030010B2
:2000800026020020C00F000106070000151240DF17FFBFE804FF3FE9001D00011E020010BF
:2000A00004FFFFEB1512C0DB171140D9171240DF1700C0DF7A700128170240D8170380D89C
:2000C0001704C0D8170500D9170640D9170780D91708C0D9170900DA170A40DA170B80DA62
:2000E000170CC0DA170D00DB170E40DB170F80DB1710C0DB0413C0DE3A0880EF04F9FFDE81
:200100001506C0DF150500DF040500DF3A8801003A31050015FEBFE017FEBFE015FBBFE0FC
:2001200015FD3FE04400800015FCBFE017FBFFE017FCBFE03A70841826140010340880002B
:20014000047F821017FDFFE0FA9006183A88C5101700C01034088000047F821017FD3FE16C
:20016000FA9008203A88051104018010170080103A8809103AE83E183A8801003A31050033
:2001800015FFBFE017FFBFE00607000017FCBFE03A88851015FCBFE017FDBFE044008010AA
:2001A00015FDBFE006E13F0015FBBFE017FBBFE01EDB3F103A8801003A8801003A8837E061
:2001C0001701C0DF170000DF0402C0DE3A2800F804FBFFDE1504C0DF150300DF040300DF03
:2001E00015FF3FE1C4FFBF0015FDBFE015FE3FE0172BA0D026070010172BA0D017FDFFE0D2
:2002000017FEBFE117FF7FE13A8809183AE83E10060200003AA03D003A8805003A8837E0A1
:200220001701C0DF170000DF0402C0DE3A2800F83408C0061400C4DE3408800614F2A1D61C
:2002400034088000140582103408C00014BFC2182603C010150000100401801036FDFF1099
:20026000C0150201001E020106FF3F0004FDFFDE150140DC150000DC3A8823283A88212030
:20028000440140013A8809301502C0DFC0E501013A880B103A88098800DA0101C4FFBF10E2
:2002A0000402C080350000184400000135040081CC3F0011350000813AD20410CC3F80101F
:2002C0003501808004208000350080181702C0DF170140DC170000DC0403C0DE3A2800F899
:2002E0004C0080313A884B293A888B2935034021040400210424800035008020370080203F
:200300008C0080101EFD3F1037008020FAD104104C0080103A2800F80404C0202602002833
:20032000041A8000060100000408800035008018370080188C0080101EFD3F103703802090
:200340003A2800F8CC3F40293503402104040021260200300414800006010000040480008E
:2003600035008020370080208C0080101EFD3F1037008020FAD104104C0080103A2800F85F
:2003800004FEFFDE150000DC170420D4CC3F4021040E00011501C0DF00DA01018300C080AB
:2003A000CC3F80102E05C0101705A0D00401C0004500C01044008000060100003A880500A7
:2003C0001701C0DF170000DC0402C0DE3A2800F8CC3F4029BAD00A28340880013A880500C1
:2003E00004418831CC3FC010260540193700C0301500C020440080100401002106F93F004C
:200400003A2800F834088000CC3F002104388810350000113A2800F804FCFFDE150000DC58
:200420003408000404280884150280DC041280043A880B903A8809803A880D001503C0DF89
:20044000150140DC002E0001440040043A880B883A8809803A880D00403400013A880D8878
:200460003A88098004014001403400013A880B903A8809803A880D00002E00013A88098085
:200480003A880D0084004001403400013A8809803A880D00440B4001403400013A880D88DD
:2004A0003A8809803A880B00403400013A880B903A8809803A880D00002E00013A880980BE
:2004C0003A880D00C4004001403400013A8809803A880D00C40D4001403400013A880D88DB
:2004E0003A880B003A8809801703C0DF170280DC170140DC170000DC0404C0DE4134000173
:2005000004FCFFDE150000DC3408000404280884150280DC041480043A880B903A8809805E
:200520003A880D001503C0DF150140DC002E00013A8809803A880D003A880B004034000178
:200540003A8809803A880D003A880B0044004004403400013A880D883A880B903A880980B8
:20056000002E00013A880B883A880980803100013A880B903A8809803A880D00002E000154
:200580003A8809803A880D003A880B00403400013A880B883A8809803A880D00403400011B
:2005A0003A880D883A88098084164001403400013A880B903A8809803A880D00002E0001A3
:2005C0003A8809803A880D003A880B00403400013A880B883A8809803A880D0040340001DB
:2005E0003A880B903A8809803A880D88002E00013A880B883A8809801703C0DF170280DCFF
:20060000170140DC170000DC0404C0DE813100013408800004318810C400C0003500C01048
:200620003408000104330821440080003700C02026FEBF1834088000043088104400C000BB
:200640003500C0103A2800F804FCFFDE150000DC3408000404280884150140DC04144004E7
:20066000150280DC3A880B883A8825203A880D003A8809801503C0DF002E00013A88098060
:200680003A880D003A880B0040340001CC3F40913A8809803A880D00403400014400800416
:2006A0003A880D903A880B883A880980002E00013A8809803A880B00803100013A880B90E5
:2006C0003A8809803A88231080310001CC3F80103A920410CC3F408C3AB044141703C0DFDB
:2006E000170280DC170140DC170000DC0404C0DE3A2800F804F2FFDE150400DC3408000456
:20070000150DC0DF150C00DF150BC0DD150A80DD150940DD150800DD1507C0DC150680DC7B
:20072000150540DC041808848401800035008080C401800035008080B4008001B498400165
:200740003408000104A8A1310480562904280821C02600010404000180640001CCFF3F1196
:20076000D4FFFF001E01C02004EDBF008503A0D08303A0D034080001041EE0D1CC3FC0101F
:20078000BAD00618BA910410840080013A880B0004080821150200D8150100D8150000D881
:2007A000051EE0D0451EA0D040340201150380D8441F60D4804100013408C0000442C81831
:2007C00037008018150380D8170380D84C0080101EF93F103408000104104001046F0221FE
:2007E000003D0001340800013A880B00041F022104108001C0FC0101170460D1452420D073
:200800001705A0D00300C028441400010500C0108300C0288500C010C300C028C500C01033
:20082000C400C0004500C0100300C028264A00193616C0208408000126990019360DC020F7
:2008400004080001265C00193675C0201E0D04188401C0000502C0104404C0004502C010E3
:200860004400C0008502C010C50200100503C01006050400C4130001261800193633C020E7
:20088000040B00012636031906FE03008415000126C600193606C020C41400012693021961
:2008A000363100194415000126A0001906F5030084180001260D02193603C0204418000120
:2008C000265F021906EF03000423000126DD0019442300012693011906EA030004E0BF006B
:2008E000C51EA0D004F1BF00051FA0D0430280284400800434080001451FA0D003028028EA
:20090000C41EE0D1150200D8150100D8150000D8040180013A880B9004100821851FA0D046
:2009200040340201150380D81705A0D04500801434088001340800013A880500041F8231D4
:20094000044008210410C00006D10300C51E20D004F1BF000606000004E0BF00C51EA0D0F3
:2009600084F1BF0006E03F00C51E20D084F0BF00840080014400800434080001150200D81F
:20098000150140DC150080D9C41EE0D13A880B9004100821051FA0D040340201150380D80F
:2009A000831FE0D01705A0D00502C010431FE0D04502C01006DD3F00030280284400C00086
:2009C0002610C01026120010840000011E12001184018000350080803A8801003A88010043
:2009E0003A8801003A8801003A8801003A8801003A8801003A8801003A8801003A880100DF
:200A000006030000840180003500808006090200C401800006FC3F004524E0D006050200D6
:200A20000401000100380001CC3F80101EC03F10051C20D004E0BF041704E0D1031CA0D09C
:200A40008300C0382EFBC1103A8885103A8885103A8887380402C018030000190402801062
:200A60003A888F383AB088240500001934080001150200D8150100D8150000D804018001AC
:200A80003A880B000410082140340201150380D8031CA0D044008010051CA0D006E63F0046
:200AA0000401000100380001CC3F80101EA03F10051C20D084008004170420D1031CA0D09B
:200AC0001705A0D18300C0202E5BC0103A8885103A8887200402C018030040190402C011FC
:200AE0003A888510CC1F402984028010050040193A8885303A88CF2134080001150200D882
:200B0000150180D8150080DC840080013A880B000410082140340201150380D8031CA0D071
:200B200044008010051CA0D006E33F000401000100380001CC3F80101E7D3F10051C20D053
:200B400004E0BF041704E0D1031CA0D08300C0382EB8C1103A8885103A8885103A88873832
:200B60000402C01803000019040280103A888F383AB088240500001934080001150200D87C
:200B8000150100D8150000D804018001440040010410082140340201150380D8031CA0D0BC
:200BA00044008010051CA0D006E63F000401000100380001CC3F80101E5D3F10051C20D0F0
:200BC00084008004170420D1031CA0D01705A0D18300C0202E18C0103A8885103A888720AC
:200BE0000402C018030040190402C0113A888510CC1F402984028010050040193A8885304E
:200C00003A88CF2134080001150200D8150180D8150080DC84008001440040010410082150
:200C200040340201150380D8031CA0D044008010051CA0D006E33F004400800045008030F8
:200C4000063B3F004302C0284303802C3A9608188302C028451CA0D43A9406183AB0C62007
:200C6000030300293AB00819C302C0283A9206183AB0C620830400291523E0D01EFD0220FE
:200C8000C3040029C40080011E3D80210302C0281EF80218340800013A880D0004144001A1
:200CA00004280821002E00014524A0D01704A0D0340800013A880D00030440110428082193
:200CC0003A882500403400014324E0D0340800013A880D003A88C5104524A0D01704A0D09A
:200CE0000428082143044011403400014324E0D03A88C5104524A0D0431CE0D01704A0D071
:200D0000C4FFFF180E0DC0903A88851403084011340800013A880D00042808214034000101
:200D20004324E0D004E20401440080943A88C5104524A0D00024020106EF3F003A88A51413
:200D4000030840914400C004340800013A880D9804280821403400014324E0D004E204013F
:200D60003A88C5104524A0D0002402014324E0D01705A0D01EBF02184500C01406EC3E00F9
:200D8000440080011EBB822103028029840000011EB802311E040018151B20D0151A20D05D
:200DA000151820D0152520D0171A20D5044080003AC805151519A0D00E158000CC3F809486
:200DC0000E0280901518A0D4060100001518A0D01718E0D434080001042F02213A880D98D1
:200DE000040840293A8809253A88E7A440E80101151AE0D4044080001E0200900E01C004ED
:200E0000151AA0D0171AE0D03AC8C5101519A0D0171AA0D0C43FC0000E288018171BE0D1C8
:200E20003A70C4381E1000100E0100383A88CF383AD20F383408000144008001CC3FC03965
:200E40003A880B000400082180BA0101CC3F8010260300104324A0D0440080104524A0D004
:200E60004324A0D01E0F001034088000171BA0D1042F821034080001150100D8150080D8A2
:200E80000440C0013A880B000400082100A30101CC3F8010260300104324A0D0440080102F
:200EA0004524A0D0171BA0D0151A20D044008010151BA0D0044080001519A0D0431C20D56E
:200EC0001718A0D40E0F00953AC8A7A4170460D1171AA0D434080001042F02213A8889247D
:200EE0003A880DA0040840291518E0D440E801013A88A59C04408000151AA0D43AC8A514DE
:200F00001519A0D41725A0D13440C0001705A0D03A888DA11525A0D1365682194324E0D0E9
:200F2000065302004302C0283A9608188302C0283A9406183AB0C620030300293AB00819D6
:200F4000C302C0283A9206183AB0C6201523E0D04303C028451CE0D08304C0281E45021817
:200F6000C304C028C40000011E3B00190302C0281E400218340800013A880D0004144001C1
:200F800004280821002E00014524A0D01704A0D0340800013A880D000304401104280821B0
:200FA0003A882500403400014324E0D0340800013A880D003A88C5104524A0D01704A0D0B7
:200FC0000428082143044011403400014324E0D034080001440080013A88C51004144001A6
:200FE000042808214524A0D0002E00014324E0D03A88C5104524A0D0431CA0D01705E0D46E
:20100000C4FFBF100E088090340800013A880B00042808213A88A79C8031000105088098DD
:201020004400809406F43F0044000005340800013A880BA004280821803100014324E0D00E
:201040003A88A59C050880901705A0D01E0902184500001506363E00440000011E0502194C
:201060008303802834088004042F82943A960C10C3038028340800010440C0013A940410BB
:20108000040008213AB08430430480293AB08C1103048028150080DC3A880B003A92041041
:2010A0003AB08C30151BA0D100900101CC3F8010260300104324A0D0440080104524A0D0FF
:2010C0001705A0D0431C20D13A880700040880100EE501193A888B1C030040294400C018D1
:2010E00044008010C5FF7F1106F93F00051C20D0440080040414C0041704E0D0031CA0D07B
:20110000830000192E4B00113A8887180302C01826020018260A801C063F00001705E0D04E
:201120003A8885103A8885103A8885180502001045020010850200108303E0D0063400002D
:20114000340800013A880D000412400104280821002E0001340800013A880D903A880B003F
:2011600004280821150380D840340001340800013A880D900412400104280821150380D87D
:20118000002E0001340800013A880B0004280821150380D880310001CC3F00111C20002126
:2011A0008402400104E03F21C0E50101340800013A880B90042808210D03A0D0803100015C
:2011C000150380D8170380D80C208010260300100B03A0D0440180100D03A0D0031CE0D096
:2011E000170420D13A88C5183A88C720170520D10302C0183A8885103A8885200502C0101C
:201200000B03E0D04502C0143AD2081885020011C502C010060300004324A0D044008010E6
:201220004524A0D0031CA0D044008010051CA0D006B13F004400C0001705A0D006920100C2
:201240000401000100380001CC3F80101EB83D10051C20D01704A0D0031CE0D08300001192
:201260002E8101193A88C7183A88C7183A88C5100302C0101E1600184302C0101E1400184C
:201280008302C0101E120018C302801034080001150200D88503A0D0CC3F8010BAD00610FD
:2012A000BA910410150100D8150000D8041EE0D1840080013A880B0004080821051EE0D047
:2012C000451EA0D040340201150380D8060300004324A0D0440080104524A0D0031CA0D038
:2012E00044008010051CA0D006DA3F004302C028430380293A9608188302C028451CA0D11F
:201300003A9406183AB0C620030300293AB00819C302C028030240293A9206183AB0C62002
:201320001523E0D04400000126050029265101288400C0001E88C028151320D10686000015
:201340001E020018840280000521A0D0CC3F80311E020030840780000521A0D04400800048
:20136000C4020001340800024400C00134007E0234084001F4024005740100037402800584
:2013800034F8FD050514A0D004440842040440033A881D20C4FF7F4A0445482904058002E9
:2013A0003A880D384401C0020405C0030406C007040D80043404C0048400000504986BADB4
:2013C00004002863C4FFAFB5C4FFFFBD0314A0D026573D100321A0D026120011360A8020CA
:2013E0008402C0001E57C010150120D31500A0D5151720D33500402A3500C02D052120D1D8
:201400000514A0D1060700002618C0138407C0001E4CC010C4FFBF0035008028052120D02A
:2014200006440000370080403408C000CC0480100444C8181E0340133500402A0521A0D23C
:201440000514A0D137008018CC0480101E02C0110521A0D30514E0D137008018CC04801050
:201460001EDA3F10052120D006D83F001516E0D71716A0D0362E8090170420D73A88B9E092
:201480000302C0E032C00718430280E02CC0FF1832C005103AD20510EC3F80103AB0861883
:2014A000830280E032C005103AD405100CC0BF103AB08418C302C0E032C007183AD6061858
:2014C000170020D73AB084181717E0D01515A0D03611C0E03A88C71C350080181717A0D009
:2014E000040180101517A0D0370080403408C000CC0280100444C81826FB3F1537008018FE
:20150000CC0280101E020010052120D0151760D537008018060200001705A0D04500C0124C
:201520001716A0D0040180101516A0D006D03F000521A0D21705A0D0051420D045008011C6
:2015400006A23F001705A0D0052120D0051420D04500C012069D3F004500001106F43C0074
:201560004302C0281523E0D026050018172220D1C4FFFF18264400198401C00006C200007F
:20158000340800018400800404E0FF04150200D8150100D8150000D8C41EE0D1040180013C
:2015A0003A880B0004100821051FA0D4C51EE0D4451F20D0851F20D040340201150380D823
:2015C0001704A0D0051FA0D4C51EE0D403028014451F20D08400800026068090C4008000E0
:2015E00026108090440080001E278090851FA0D406010000851FA0D034080001150200D82D
:20160000150100D8150000D8C41EE0D1040180013A880B000410082140340201150380D8E5
:2016200006190000C41EE0D4340800013A880F98040180013A880B0004100821150200D8D0
:20164000150100D8150000D8851FA0D4403402018400800134080001150200D81501C0DC3D
:20166000150080D93A880F983A880B0004100821150380D8C51E20D0051FA0D44034020137
:20168000150380D806780000851E20D044078004C41EE0D4C4000005831EA0D0360F809035
:2016A0008400800134080001150200D81501C0DC150080D9C41EE0D13A880B00041008213C
:2016C000C51E20D0051F20D540340201150380D8031FA0D04C00801026040010051C20D07E
:2016E000C407800404E0FF0406060000831EA0D08407000144008010851EA0D000240201FD
:2017000006E53F00031CA0D0361780900401C000051FE0D01704E0D034080001C41EE0D17F
:201720003A8885188302801004018001150200D8150100D8150000D83A880B0004100821DB
:20174000C51EE0D4451F20D0851FA0D040340201150380D8031CA0D0851E20D044008010AD
:20176000051CA0D006E73F00851E20D0C41EA0D4C40000058400400534080001150200D805
:20178000150180DC150040DDC41EE0D1840080013A880B0004100821C51E20D0051F20D517
:2017A00040340201150380D8031FA0D0C41EE0D44C0080101E060010831EA0D0840700016D
:2017C00044008010851EA0D00024020106EA3F001723E0D0C43F80001E218018851E20D0F5
:2017E00044078004C4000005831EA0D0360F80908400800134080001150200D81501C0DC08
:20180000150080D9C41EE0D13A880B0004100821C51E20D0051F20D540340201150380D8EA
:20182000031FA0D00C10801026070010831EE0D0840780001E0A80184324A0D04400801066
:201840004524A0D006060000831EA0D08407000144008010851EA0D00024020106E23F00D1
:201860001723A0D01522A0D04324E0D01705A0D0260200184401C000060300004400C00022
:20188000060100008400C0004500C01006283C003A888B1117004029350040210401801075
:2018A0001EFBFF101713E0D0440080001EC2BB180061000106C03B00CC3F00217AD00420B2
:2018C0003A8809218C2A00214C1580103AB08820BAD004203A8809213A880921CC0C8010D4
:2018E0000C3300213AB088203AD104203A9108203AB004113A2800F8052620D13A2800F805
:20190000440080000526A0D0CCFFFF39261400383AD4043004FBFFDEC50380D9450380D814
:201920003AD204301500C0D9150200D8850380D8C4008000050380D8170580D80403C0D932
:2019400004018001150180D81504C0DF403402013A8805001704C0DF0405C0DE3A2800F8E2
:201960003A8805003A2800F804F5FFDE150940DD150800DD1507C0DC150680DC150400DC17
:20198000150AC0DF150540DC3A8825203A88272844C4090484010005440140058403C0D9F2
:2019A000440080013A880B983A880990150200D8150100D8150000D8850300DD40340201FC
:2019C000040380D884004004150200D8150180D8150040DC8403C0D9440080013A880B9808
:2019E0003A880990C4FF3F84850340DD4034020126050080030380D8CC0080101EE77F14ED
:201A00003A8805000601000044008000170AC0DF170940DD170800DD1707C0DC170680DC08
:201A2000170540DC170400DC040BC0DE3A2800F804F2FFDE150C00DF440000071507C0DC9A
:201A4000150DC0DF150BC0DD150A80DD150940DD150800DD150680DC150540DC150400DCB5
:201A6000052620D7CCFFFF3C1E0200983A88050006410000CC3FC0391E3E00383A922030C4
:201A8000170E00DD3AD226983A8825283A8823203A8839003AC82185840040054400800531
:201AA000C400C005CCFFFF983A8805A4263100183AD406103AD20410C50300D84503C0D89D
:201AC000850380D8170F80D8261000100726A0D00503C0DD1E0600103A880B903A8809883C
:201AE000809601013A883910CC3F801026DF3F1004408000150200D8150100DD150080D8C1
:201B00000403C0D904018001061400003A880B903A880988050340DD809601013A8839108D
:201B2000CC3F80101E1300100403C0D904018001150280DD150100D8150000D83A880B90F7
:201B40003A880988403402013A880FA0150200D8150100D8150000D8044080013A880B905E
:201B60003A88098840340201044000A5C4FFFF9C06CC3F003A8805E0170DC0DF170C00DFD7
:201B8000170BC0DD170A80DD170940DD170800DD1707C0DC170680DC170540DC170400DC6D
:201BA000040EC0DE3A2800F804F5FFDE150500DC3A8821301508C0DC840180003A8827385D
:201BC000150200D8150100D8150000D80403C0D944008001CC3F0084150780DC150640DC98
:201BE000150AC0DF150900DD3A8823203A882528050380D840340201260D00800408800002
:201C0000150200D8150100D8150000D80403C0D9040180013A880B903A880988050380D8C4
:201C20004503C0DC850300D8C50300D84034020144018000B40B0004050380D844B03184B8
:201C40004400C004040400DD150200D8150100DD1500C0DC0403C0D9440080013A880B9042
:201C60003A880988C4FF3F8440340201260500800304C0D84C00C0183A8805181EF23F1860
:201C80000601000044008000170AC0DF170900DD1708C0DC170780DC170640DC170500DC56
:201CA000040BC0DE3A2800F8161B00203A880F00161600283A880D202E1A002904088000BB
:201CC0004400C00006010000260D00103A884B29C4FFBF103A88C71836FB3F293A880500ED
:201CE000260700183A880500360240313AC84D313AB0C4107AD006187AD00A281EFA3F189E
:201D0000260100383AC885003A2800F83AC84B015C00C03906E73F003AC809014400C001A3
:201D200006E33F004400C00006EE3F00161700203A880F003A880520161200282E16002982
:201D4000040880014400C00006010000260A00303A884B29C4FFBF313A88C71836FB3F2968
:201D6000260500187AD00618360140113AC845117AD00A281EFB3F18260100383AC8850006
:201D80003A2800F83AC84B0106EC3F003AC809014400C00106E73F004400C00006F13F00F3
:201DA0003A880D202E15002916140028040880004400C00006020000260E00101605002857
:201DC0003A884B29C4FFBF103A88C71836FA3F29260800183A880500360240313AC84D31CC
:201DE0003AB0C4107AD006187AD00A281EFA3F183A2800F83A8805003A2800F84400C00053
:201E000006F43F003A8805202E12002916110028040880014400C00006020000260C0030EF
:201E2000160500283A884B29C4FFBF313A88C71836FA3F29260600187AD006183601401109
:201E40003AC845117AD00A281EFB3F183A2800F83A2800F84400C00006F73F003A88050083
:201E6000260700204C00C0207AD00820260100183A8845113A884B291EFA3F203A2800F819
:201E80003A2800F804FDFFDE1502C0DF150140DC150000DCC403C0003A8805202E458019B7
:201EA0003AB00629CC00C0181E44001804FC7F343AD122880401C028040140233A912088BB
:201EC0000402002B0402C022040500840403802A040340223A88212C3A8811283A880F2047
:201EE000170000411700C01F1700C06315000039170080531500C06F1500C05B1500804BCE
:201F00000404C0180404C039040400420404406B040400630404C05A040480520404404AEA
:201F20001EEF3F1C4400C0893A910E38CC030031C400C0023A88C7113A88CB292E2100591D
:201F40003A8813183A8811283A880F20170080420401404A04FFFF3915FFBF4A04010042A1
:201F600036FAFF5904FF3F21BAD00820CC008031440000213A8809213A8809213A88071928
:201F80003A880B29260600303A888D190300C0294400C01844004029C5FFFF191EFBBF1905
:201FA0001702C0DF170140DC170000DC0403C0DE3A2800F83A88072006F23F003A8807203A
:201FC00006F13F003A880D2006EE3F00CC00C0203A88052026440018C4FFFF31264000300B
:201FE0003A8813283A880D203A88072006040000C4FF3F3A44008031263900383A880F4029
:202000004400C01805004032CC00001A1EF83F40C40000012E2DC021CC3F00293A920C2085
:202020003AB008313A940C203AB08C21C40300012E18C02104FC3F3B3AD118600401001AE1
:202040000402C01A3A9108600403801A3A881318040500213A88091915008049150080411D
:202060001500805915008051040400420404404A0404C05A040480521EF73F414400006378
:202080003A911860CC03C039C40000013A88071B2E0EC0213A8813183A881138C4000001B2
:2020A0001500804904FF3F420401404A36FC3F2204FF3F39BAD00820CC00C0394400002145
:2020C0003A8809213A8809213A880719260500383A88CF19050040194400C0181EFDFF386D
:2020E0003A2800F83A2800F83A8807203A880F3006C73F0004FCFFDE150300DF040300DF7C
:2021000015FD3FE115FE7FE115FFBFE117FEFFE017FDBFE0260C80180608000017FEBFE033
:202120000401C01015FEFFE017FDFFE00401001915FD3FE11700C0181500C01017FEFFE0CD
:2021400017FFBFE01EF5BF183A8801003A8837E0170000DF0401C0DE3A2800F804FEFFDE72
:202160001501C0DF150000DF3A8839D8340880010405823134084001040E40293404000139
:2021800004E31221400F020134048001048C80313404400104084029340400010408002185
:2021A000400F020134088001040E803134084001040040293404000104D51221400F0201CC
:2021C000C0FE0301402904013A8801003A8837E01701C0DF170000DF0402C0DE3A2800F888
:2021E00004FDFFDE1502C0DF150100DF040100DF3A880900402A02013A880100C02D020187
:202200008011040134040001045E1021807204011727A0D01728E0D0172920D13A880D20A8
:202220003A880B183A880910406F000115FFBFE044000001C0EE030117FF3FE1C073040116
:2022400004FDFFDE1502C0DF150100DF040100DF15FF3FE117FF3FE180D503013A8837E075
:202260001701C0DF170000DF0402C0DE3A2800F804FDFFDE1502C0DF150100DF040100DF46
:2022800015FF3FE1040A60D117FF3FE1400704013A8837E01701C0DF170000DF0402C0DE1F
:2022A0003A2800F804FDFFDE1502C0DF150100DF040100DF15FF3FE1805D0401440080007D
:2022C0003A7001103A8801003A8837E01701C0DF170000DF0402C0DE3A2800F804FEFFDE1D
:2022E0001501C0DF150000DF3A8839D83A8801003A8801003A8801003A8801004400800191
:202300003A880B0034080001041800210065020134080001040E0021002702013408000137
:20232000043F0021C06C03013A8801003A8801003A8837E01701C0DF170000DF0402C0DE59
:202340003A2800F804F4FFDE150B00DF040B00DF15FC3FE115FD7FE115FEBFE115FFFFE117
:2023600017FFFFE017FEBFE03A88851815F8BFE01702C0E0170180E03A88851815F9BFE06C
:20238000170180E015F5BFE017FEBFE015F6BFE04400800015F7BFE017FCBFE00405801004
:2023A0003A8809104400C00017FDBFE03A98841835008020170380E08C0080101E0500107F
:2023C00017FCBFE0040380103A880710040081003500801817FCBFE03700801017FCBFE05E
:2023E000040280103700801015FABFE017FABFE00C1080102602001017F7BFE01E03001060
:2024000017FABFE00C20801026F43F1017FABFE00C108010261E001017F7BFE00E1C8000E0
:2024200017F7BFE0C4FFBF1015F7BFE017FFFFE017F8BFE02E0A801817FCBFE004018010F8
:202440003A88091017FFBFE04400C01015FFFFE003008010CC3F801035008020060C0000D0
:2024600017F5BFE02608001017F5BFE0C4FFBF1015F5BFE017FCBFE0040180103A8807007D
:202480003500C010060200000400BF0015F7BFE017FABFE00C20801026D03F1017FCBFE05E
:2024A0003700801015FBBFE017F6BFE02604001017F6BFE0C4FFBF1015F6BFE006050000CD
:2024C000170280E04400C0101502C0E017FBFFE00500C01017F7BFE04400801015F7BFE0C6
:2024E00017F6BFE01EBD3F101702C0E017F9BFE01EBABF1817FCBFE00402801037008010E0
:2025000015FABFE017FABFE00C08801026F93F10170380E04C0080101E04001017FCBFE011
:20252000040380103A8807003500C010170180E03A8837E0170000DF0401C0DE3A2800F8F2
:2025400004FAFFDE1505C0DF150400DF040400DF15FD3FE115FE7FE115FFBFE117FDBFE0FC
:202560001700801015FCBFE017FCBFE0040AC01017FDBFE0170280103A880F1017FFBFE181
:2025800017FE7FE13A88091840A502013A8837E01701C0DF170000DF0402C0DE3A2800F877
:2025A00004FAFFDE1505C0DF150400DF040400DF15FD3FE115FE7FE115FFBFE117FDBFE09C
:2025C0001700801015FCBFE017FCBFE0040AC01017FDBFE0170280103A880F1017FFBFE121
:2025E00017FE7FE13A880918C0C602013A8837E01701C0DF170000DF0402C0DE3A2800F876
:2026000004FCFFDE1503C0DF150200DF040200DF15FF3FE117FFBFE01700801015FEBFE009
:2026200017FEBFE0040AC01017FFBFE0170280103A880B103A880918409C02013A8837E032
:202640001701C0DF170000DF0402C0DE3A2800F804F8FFDE1507C0DF150600DF040600DF58
:2026600015FD3FE115FE7FE115FFBFE117FDBFE01700801015FBBFE03A8805001E040010FF
:202680003A8805001E0200103A8805002602001044008000060100003A88050015FCBFE002
:2026A00017FCBFE01E0F001017FDBFE00420C3001501C01017FBBFE00403801017FDFFE070
:2026C0001701C0183500C010150000D817FDFFE13404800104BF893117FF7FE117FE3FE143
:2026E000402B04013A8801003A8837E01701C0DF170000DF0402C0DE3A2800F804FAFFDE48
:202700001505C0DF150400DF040400DF15FF3FE117FFBFE015FCBFE017FCBFE0170080102F
:2027200015FDBFE017FDBFE0040280103700801015FEBFE017FDBFE0040280103A88070014
:202740003500C01017FDBFE0040280103700801017FEBFE00C2080102603001017FE7FE146
:2027600017FC3FE18079020117FEBFE00C1081102603001017FE7FE117FC3FE1C08702019E
:202780003A8801003A8837E01701C0DF170000DF0402C0DE3A2800F804FCFFDE150300DF1E
:2027A000040300DF15FE3FE115FF7FE117FFBFE0CC0080101E2C001017FEBFE017038010C3
:2027C00017FEBFE01702801017FEBFE01703801044008010CC0F801015FDBFE017FEBFE09A
:2027E0001703801017FEFFE01700C0183700C0183A88091817FEFFE03A888518040780106C
:202800000500001117FEBFE017FDFFE01503C01017FEBFE01703801044008010CC0F801076
:2028200015FDBFE017FEBFE01702C01017FDBFE01E0E801817FEBFE01701C010C4DFBF00D5
:202840003A70861817FEBFE01501C01017FEBFE0170080100403801017FEFFE01701C018C0
:202860003500C010060100003A8801003A8837E0170000DF0401C0DE3A2800F804FBFFDEE1
:20288000150400DF040400DF15FC3FE115FD7FE117FCBFE01704C01017FCBFE017058010BB
:2028A0002632801817FCBFE0170680108C0080102603001017FDBFE00C008210261D0010D0
:2028C00017FCBFE01704801017FCBFE01705801017FCBFE0170080100401801017FCFFE05D
:2028E0001704C01817FC3FE13A88C7200417C0180300C018CC3FC0183500C01017FCBFE0A1
:20290000170480104400801017FCFFE015048018CC0FC01017FCBFE01504C01017FCBFE09D
:20292000170180101410C01017FCBFE01501C010060E000017FCBFE0170080100402801060
:202940003700801015FDBFE017FDBFE00C0082101E06001017FCBFE01701C010C4EFBF006E
:202960003A70861817FCBFE01501C01017FCBFE01704C01017FCBFE0170580101E068018C0
:2029800017FCBFE01701C010C4EFBE003A70861817FCBFE01501C01017FCBFE017008010F3
:2029A0000403801017FCFFE01701C0183500C0103A8801003A8837E0170000DF0401C0DE64
:2029C0003A2800F804FDFFDE150200DF040200DF15FE3FE115FF7FE10605000017FFBFE07D
:2029E0000C0090102602001044FDBF000606000017FEBFE01704C01017FEBFE017058010E8
:202A00001EF6BF183A8805003A8837E0170000DF0401C0DE3A2800F804FEFFDE1501C0DFA4
:202A2000150000DF3A8839D8170DA0D026030010170DA0D03AE83E1006010000042CA0D057
:202A40003A8837E01701C0DF170000DF0402C0DE3A2800F804F2FFDE150DC0DF150C00DF5E
:202A6000040C00DF15FC3FE115FD7FE115FEBFE115FFFFE105F43FE015F53FE017FFBFE027
:202A80000C0090103A000510CC3F801015F6BFE00613000017F5BFE04400801015F5BFE0B5
:202AA00017FDBFE04400C01015FDFFE017FCFFE01702C01817FC3FE13A88C7200407C018BC
:202AC0000300C0180500C01017FCBFE01702801044008010CC0FC01017FCBFE01502C010D3
:202AE00017F5FFE017FEBFE00E05801817FCBFE01702C01017FCBFE0170380101EE5BF18BB
:202B000017F5BFE01E25001017FCBFE01702C01017FCBFE0170380101E20801817F6BFE03E
:202B20001E07001080A102013A880710C4028000150080184400800005F4BFE0061B0000F3
:202B40003A30050015F9BFE017F9FFE084FFBF003A7084183A70011017F9BFE015F8BFE0CC
:202B600017FCBFE0170180101420C01017FCBFE01501C01017FCBFE017008010040380106F
:202B800017FCFFE01701C0183500C01017F8BFE015FABFE017FABFE03A70011017F5BFE0DC
:202BA0001E02001017FEBFE01ECD3F103A30050015FBBFE017FBFFE084FFBF003A70841860
:202BC0003A70011017FBBFE015F8BFE017FCBFE0170180101420C01017FCBFE01501C010E7
:202BE00017FCBFE0170080100403801017FCFFE01701C0183500C01017F8BFE015F7BFE0A5
:202C000017F7BFE03A70011003F4BFE02602001044FDBF000601000017F5BFE03A8837E0F3
:202C20001701C0DF170000DF0402C0DE3A2800F804FEFFDE1501C0DF150000DF3A8839D88E
:202C4000170DA0D026030010170DA0D03AE83E1006010000042CA0D03A8837E01701C0DF6C
:202C6000170000DF0402C0DE3A2800F804F2FFDE150DC0DF150C00DF040C00DF15FC3FE1AC
:202C800015FD7FE115FEBFE115FFFFE117FEBFE015F4BFE017FFBFE00C00901015F5BFE0B5
:202CA000063C000017FCBFE01705801044008010CC0F801015F7BFE017FCBFE01704C010ED
:202CC00017F7BFE01E22801817F5BFE02605001000C302013A880710C402800015008018F7
:202CE000062E00003A30050015F9BFE017F9FFE084FFBF003A7084183A70011017F9BFE0A3
:202D000015F8BFE017FCBFE0170180101410C11017FCBFE01501C01017FCBFE017008010C7
:202D20000403801017FCFFE01701C0183500C01017F8BFE015F6BFE017F6BFE03A70011056
:202D400017FCBFE01704C01017F7BFE026FCBF1817F4BFE0C4FFBF1015F4BFE017FCBFE09A
:202D60001705C01017FDBFE04400001115FD3FE1030080103A88091017FCBFE03A88C51076
:202D8000041780100500001117FCBFE017F7FFE01505C01017F4BFE01EC23F103A300500A1
:202DA00015FBBFE017FBFFE084FFBF003A7084183A70011017FBBFE015F8BFE017FCBFE021
:202DC000170180101410C11017FCBFE01501C01017FCBFE0170080100403801017FCFFE0DC
:202DE0001701C0183500C01017F8BFE015FABFE017FABFE03A70011017FEFFE017F4BFE079
:202E00003AC885183A8837E01701C0DF170000DF0402C0DE3A2800F804FDFFDE1502C0DFFB
:202E2000150100DF040100DF15FF3FE1040E60D117FF3FE1400704013A8837E01701C0DF30
:202E4000170000DF0402C0DE3A2800F804F7FFDE1508C0DF150700DF040700DF15FC3FE1D4
:202E600015FD7FE115FEBFE115FFFFE115F93FE017FCBFE015FABFE017FABFE0170B80104A
:202E800017FDFFE00E06801817FDFFE017FFBFE03A88851817FAFFE0170BC0180E028018FA
:202EA00084FCBF000617000017FABFE0170AC01017FDBFE03A88851817FFFFE03A880D1827
:202EC0003A880B1017FE3FE140E8010117FABFE0172F8010260A001017FABFE0172F80106A
:202EE000370080100C01801015FBBFE017FBBFE0200180101E020010C4FEBF0015F9BFE0FF
:202F000017F9BFE03A8837E01701C0DF170000DF0402C0DE3A2800F804FAFFDE150500DFAA
:202F2000040500DF15FD3FE115FE7FE115FFBFE115FB3FE017FDBFE015FCBFE017FFBFE009
:202F40002604001017FCBFE0170CC01017FFBFE01500C01017FCBFE0170C80101E03001062
:202F600004FDBF0015FBBFE0060D000017FCBFE0170C8010500280101E03001084FCBF0018
:202F800015FBBFE00606000017FEBFE02604001017FCBFE0040DC01017FEBFE01500C0105C
:202FA00017FBBFE03A8837E0170000DF0401C0DE3A2800F804F9FFDE1506C0DF150500DF07
:202FC000040500DF15FE3FE115FF7FE115FB3FE017FEBFE015FCBFE017FCBFE0170B80106B
:202FE00017FFFFE01602801884FCBF000646000017FCBFE0172F80102603001017FCBFE02E
:20300000172E80102602001044FBBF00063E000017FCBFE0173F8010C4FFFF1017FFBFE042
:203020003A7084182602001084FABF000636000017FC3FE180BA030115FBBFE017FBBFE0C8
:203040002602001017FBBFE0062F000017FCBFE0172F80100401C01017FCBFE0172F80106D
:2030600004018010370080102C003C1134208000C4FFBF103AB084203500801817FFBFE005
:203080000E010010C4008010BAD0051015FDBFE017FCBFE0172F80100401801017FCFFE05E
:2030A000172FC0180401C0183700C0182C003C1917FDFFE0341CC0183AB0C6203500C01095
:2030C00017FC3FE180BA030115FBBFE017FC3FE180C3030115FBBFE017FCBFE0172F80101F
:2030E0000401C01017FCBFE0172F8010040180103700001134008400C4FFBF103AB08420BE
:203100003500801817FBBFE03A8837E01701C0DF170000DF0402C0DE3A2800F804F2FFDEDA
:20312000150DC0DF150C00DF040C00DF15FC3FE115FD7FE115FEBFE115FFFFE115F43FE06D
:2031400017FCBFE015F8BFE015F53FE017FEBFE015F6BFE017F8BFE0170B801017FDFFE037
:203160000E0A801817F8BFE0170B801017FEFFE00E06801817F8BFE0170BC01017FEBFE04B
:203180003AC88718170280E00E02801884FCBF000693000017F8BFE0172F801026030010D8
:2031A00017F8BFE0172E80102602001044FBBF00068B000017F83FE180BA030115F4BFE0B0
:2031C00017F4BFE02602001017F4BFE00684000017F8BFE0172F80100401C01017F8BFE0D2
:2031E000172F801004018010370080102C003C1134208000C4FFBF103AB084203500801863
:2032000006650000C4FFBF0015FBBFE017F6BFE0CC0080101E1E001017F6BFE00401C0103D
:2032200004FFBF003A70841815F7BFE017F7FFE017F6BFE03AC885181702C0E00E01801843
:203240003A88051815F9BFE017F5BFE017FFFFE03A88871817F93FE104FBBFE03A880D2024
:203260003A880B183A88091040E8010117F5FFE017F9BFE03A88851815F5BFE01702C0E009
:2032800017F9BFE03AC88518150280E00630000017F6BFE0CC00801015FABFE017F6FFE091
:2032A00017FABFE03AC8851815F6BFE017F6BFE00401C01004FFBF003A70841815F7BFE0E1
:2032C00017F7FFE017F6BFE03AC889181702C0E017FABFE03A8887183A8805200E0180185A
:2032E0003A88051815F9BFE004FBFFE017FABFE03A8885183A880F1017F5BFE017FFFFE0D4
:203300003A88891817F9FFE017FABFE03AC885183A880D103A880B203A88093840E8010113
:2033200017F9FFE017FABFE03AC8851817F5FFE03A88851815F5BFE017F9FFE017FABFE0BD
:203340003AC885181702C0E03AC88518150280E017F8BFE0170AC01017F6BFE03A88851855
:2033600017FBFFE03500C01017F83FE180BA030115F4BFE017F4BFE01E0A001017F83FE131
:2033800080CC030115F4BFE017F4BFE01E07001017F7BFE015F6BFE0170280E01E993F1080
:2033A000060300003A880100060100003A88010017F8BFE0172F80100401C01017F8BFE070
:2033C000172F8010040180103700001134008400C4FFBF103AB084203500801817F4BFE0EB
:2033E0003A8837E01701C0DF170000DF0402C0DE3A2800F804F1FFDE150EC0DF150D00DFB4
:20340000040D00DF15FC3FE115FD7FE115FEBFE115FFFFE115F43FE017FFBFE015F8BFE0E9
:2034200017FDBFE015F9BFE017FCBFE015FABFE017FABFE0170B801017FDFFE00E068018CB
:2034400017FABFE0170BC01017FDBFE03AC8871817FFBFE00E02801884FCBF00069600003E
:2034600015F53FE00687000017FAFFE017F5BFE03A9104103A888518040D80101700801075
:2034800017FDFFE0167C801817FAFFE017F5BFE03A9104103A888518040D80101700C010AE
:2034A00017FA3FE117F5BFE03A9104103A888520040E8010170080103A88851817FDFFE04F
:2034C0000E6D801817FAFFE017F5BFE03A9104103A888518040D80101700801015F7BFE00D
:2034E00015F63FE0065C000017FDFFE017F7BFE0164D801817FAFFE017F5BFE00401801075
:203500003A9104103A8885181700C01017F7BFE03A88851817FDFFE00E43801817FAFFE0AE
:2035200017F5BFE0040180103A9104103A8885181700C01017F7BFE03A88871817FDBFE065
:203540003AC8851815FBBFE017FBFFE017FFBFE00E0180183A88051815FBBFE017FABFE092
:20356000170AC01017FDBFE03A88851817FBFFE03A880D183A880B1017FE3FE140770401A2
:203580002613001017FABFE01708801017FAFFE017F77FE13A8809183AE83E1015F4BFE02A
:2035A00017F4BFE01E0A001017FABFE01709801017FA3FE117FBFFE01500C0D817FEFFE105
:2035C00017FDBFE117F77FE13AE83E1015F4BFE017FFFFE017FBBFE0262E801817F4BFE075
:2035E0001E2C001017FFFFE017FBBFE03AC8851815FFBFE017FAFFE017F5BFE00401801049
:203600003A9104103A8885181700C01017F7BFE03A88851815FDBFE017FBBFE017FEFFE023
:203620003A88851815FEBFE017FAFFE017F5BFE0040180103A9104103A8885181700801064
:2036400017F7FFE03A88851815F7BFE017F6BFE04400801015F6BFE017FAFFE017F5BFE0AE
:203660003A9104103A888518040F80101700801017F6FFE0169CBF1817F5BFE044008010CE
:2036800015F5BFE017FABFE0170C801017F5FFE01675BF1817FABFE0170AC01017F9BFE081
:2036A0003A88851817F8FFE03A880B183A88091040FC030117F4BFE03A8837E01701C0DF83
:2036C000170000DF0402C0DE3A2800F804F5FFDE150AC0DF150900DF150800DC040900DF80
:2036E00015FE3FE115F83FE015F93FE015FA3FE015FB3FE015FC3FE015F73FE017FEBFE0D2
:20370000040D801015FDBFE017FEBFE0172F80102619001017FEBFE0172F8010370080102D
:203720000C08801015F8BFE017FEBFE0172F8010370080100C10801015F9BFE017FEBFE0DB
:20374000172F8010370080100C20801015FABFE017FEBFE0172F8010370080100C40801035
:2037600015FBBFE017FEBFE0172F8010370080100C80801015FCBFE017FEBFE017308010F2
:20378000580080101E2F001017F8BFE0200880101E2C001017F7BFE03A91041017FDFFE0A5
:2037A0003A88851817FEFFE01731C0181500C01017F7BFE03A91041017FDFFE03A888518D3
:2037C00017FEFFE01732001917FEFFE01731C0183AC8C7204400C0181501C01017F7BFE0E7
:2037E0003A91041017FDFFE03A88A11817FEFFE017F7BFE03A9104103A888518040E8010FB
:203800001700C01017FEBFE0173F80103A880B103A88091880CA01011502808017F7BFE057
:203820003A91041017FDFFE03A88851817FEFFE0173FC0181503C01017F7BFE044008010CC
:2038400015F7BFE017FEBFE017338010580080101E2F001017F9BFE0201080101E2C001021
:2038600017F7BFE03A91041017FDFFE03A88851817FEFFE01734C0181500C01017F7BFE0C1
:203880003A91041017FDFFE03A88851817FEFFE01735001917FEFFE01734C0183AC8C7209E
:2038A0004400C0181501C01017F7BFE03A91041017FDFFE03A88A11817FEFFE017F7BFE06B
:2038C0003A9104103A888518040E80101700C01017FEBFE0173F80103A880B103A880918C7
:2038E00080CA01011502808017F7BFE03A91041017FDFFE03A88851817FEFFE0173FC01865
:203900001503C01017F7BFE04400801015F7BFE017FEBFE017368010580080101E2F0010BD
:2039200017FABFE0202080101E2C001017F7BFE03A91041017FDFFE03A88851817FEFFE0DB
:203940001737C0181500C01017F7BFE03A91041017FDFFE03A88851817FEFFE01738001922
:2039600017FEFFE01737C0183AC8C7204400C0181501C01017F7BFE03A91041017FDFFE0C3
:203980003A88A11817FEFFE017F7BFE03A9104103A888518040E80101700C01017FEBFE090
:2039A000173F80103A880B103A88091880CA01011502808017F7BFE03A91041017FDFFE07F
:2039C0003A88851817FEFFE0173FC0181503C01017F7BFE04400801015F7BFE017FEBFE09E
:2039E00017398010580080101E2F001017FBBFE0204080101E2C001017F7BFE03A9104101B
:203A000017FDFFE03A88851817FEFFE0173AC0181500C01017F7BFE03A91041017FDFFE0D3
:203A20003A88851817FEFFE0173B001917FEFFE0173AC0183AC8C7204400C0181501C010C0
:203A400017F7BFE03A91041017FDFFE03A88A11817FEFFE017F7BFE03A9104103A8885188D
:203A6000040E80101700C01017FEBFE0173F80103A880B103A88091880CA01011502808000
:203A800017F7BFE03A91041017FDFFE03A88851817FEFFE0173FC0181503C01017F7BFE091
:203AA0004400801015F7BFE017FEBFE0173C8010580080101E2F001017FCBFE020808010C9
:203AC0001E2C001017F7BFE03A91041017FDFFE03A88851817FEFFE0173DC0181500C010A9
:203AE00017F7BFE03A91041017FDFFE03A88851817FEFFE0173E001917FEFFE0173DC01866
:203B00003AC8C7204400C0181501C01017F7BFE03A91041017FDFFE03A88A11817FEFFE0CC
:203B200017F7BFE03A9104103A888518040E80101700C01017FEBFE0173F80103A880B109A
:203B40003A88091880CA01011502808017F7BFE03A91041017FDFFE03A88851817FEFFE04D
:203B6000173FC0181503C01017F7BFE04400801015F7BFE017FEBFE017F7FFE0150CC01071
:203B800017FEBFE03A88091080E102013A88010004FFFFE61702C0DF170100DF170000DCE5
:203BA0000403C0DE3A2800F804FAFFDE1505C0DF150400DF040400DF15FF3FE115FC3FE02F
:203BC000F40280000498AB1015FEBFE0F40280000498AB1015FDBFE0060C00004400000191
:203BE00080D5030117FEBFE02608001017FDBFE0C4FFBF1015FDBFE017FDBFE01E030010A0
:203C000004E3BF0015FCBFE00605000017FFBFE0172F801037008010CC0080101EEF3F1039
:203C200017FCBFE03A8837E01701C0DF170000DF0402C0DE3A2800F804FAFFDE1505C0DFBA
:203C4000150400DF040400DF15FF3FE115FC3FE0F40280000498AB1015FEBFE0F40280002C
:203C60000498AB1015FDBFE0060C00004400000180D5030117FEBFE02608001017FDBFE0E7
:203C8000C4FFBF1015FDBFE017FDBFE01E03001004E3BF0015FCBFE00605000017FFBFE0E7
:203CA000172F8010370080100C04801026EF3F1017FCBFE03A8837E01701C0DF170000DF2B
:203CC0000402C0DE3A2800F804FAFFDE1505C0DF150400DF040400DF15FF3FE115FC3FE00F
:203CE000F40280000498AB1015FEBFE0F40280000498AB1015FDBFE0060C00004400000170
:203D000080D5030117FEBFE02608001017FDBFE0C4FFBF1015FDBFE017FDBFE01E0300107E
:203D200004E3BF0015FCBFE00605000017FFBFE0172F8010370080100C02801026EF3F10CE
:203D400017FCBFE03A8837E01701C0DF170000DF0402C0DE3A2800F804FAFFDE1505C0DF99
:203D6000150400DF040400DF15FF3FE14402800015FDBFE0F40340010490502917FD3FE140
:203D8000C0E501013A880B10B49800010480162100DA01013A880B1034002001C4FF3F2166
:203DA00000DA01013A880B1017FF3FE100DA010115FEBFE017FEBFE0262A001015FC3FE042
:203DC000061700003400A000C4FFBF10C4FFBF101EFE3F10F40340010490502917FD3FE1EA
:203DE000C0E501013A880B10B49800010480162100DA01013A880B1034002001C4FF3F2106
:203E000000DA01013A88071017FFBFE03AC8C51015FFBFE017FCBFE04400801015FCBFE078
:203E200017FCFFE017FEBFE016E6BF18F40340010490502917FD3FE1C0E501013A880B100C
:203E4000B49800010480162100DA010117FF7FE13A880910C0E50101C4FFBF101EFE3F1089
:203E6000060D0000F40340010490502917FD3FE1C0E501013A880B10B4980001048016212A
:203E800000DA010117FF7FE13A880910C0E50101C4FFBF1016FEBF003A8805003A8837E049
:203EA0001701C0DF170000DF0402C0DE3A2800F804FEFFDE1501C0DF150000DF3A8839D8FC
:203EC000170DA0D026030010170DA0D03AE83E1006010000042CA0D03A8837E01701C0DFDA
:203EE000170000DF0402C0DE3A2800F804FBFFDE1504C0DF150300DF040300DF15FF3FE129
:203F000017FFBFE0160800100403400117FF3FE1C0E501013A8807103408800004898010E7
:203F20003A888518060100003A88050015FDBFE017FDBFE02619001017FDBFE01700801047
:203F4000170480102606001017FDBFE0170080101704801017FD3FE13AE83E1006010000CA
:203F60003A88050015FEBFE017FF3FE14055040117FEBFE00E07001000EB03013A88071057
:203F800017FEBFE03AC8850015008018C4FFBF00060700003A8805000605000000EB0301E9
:203FA0003A8807104414800015008018C4FFBF003A8837E01701C0DF170000DF0402C0DEF7
:203FC0003A2800F804FDFFDE150200DF040200DF15FE3FE115FF7FE13A8801003A8837E08B
:203FE000170000DF0401C0DE3A2800F804FFFFDE150000DF3A8839D83A8801003A8837E08B
:20400000170000DF0401C0DE3A2800F804FCFFDE150300DF040300DF15FD3FE115FE7FE14E
:2040200015FFBFE117FFBFE03A8837E0170000DF0401C0DE3A2800F804FEFFDE1501C0DFB7
:20404000150000DF3A8839D8170DA0D026030010170DA0D03AE83E1006010000042CA0D021
:204060003A8837E01701C0DF170000DF0402C0DE3A2800F804FAFFDE1505C0DF150400DF30
:20408000040400DF15FE3FE115FF7FE117FEBFE02603001017FEBFE0170280101E06001014
:2040A000800304013A880710840580001500801884FABF000613000017FEBFE017FFFFE0EA
:2040C00015FCFFE015FDBFE017FDBFE017FCFFE01501C01017FCBFE01700C01017FDBFE068
:2040E0001500C01017FCBFE01700801017FDFFE01501C01017FCBFE017FDFFE01500C0101F
:204100003A8805003A8837E01701C0DF170000DF0402C0DE3A2800F804FDFFDE1502C0DFC0
:20412000150100DF040100DF3404800004D4921015FFBFE00606000017FFBFE01700801059
:204140003AE83E1017FFBFE004FFBF1015FFBFE017FFFFE03404800004D592102EF6BF1892
:204160003A8801003A8837E01701C0DF170000DF0402C0DE3A2800F804FDFFDE1502C0DF64
:20418000150100DF040100DF3404800004D4921015FFBFE00606000017FFBFE017008010F9
:2041A0003AE83E1017FFBFE004FFBF1015FFBFE017FFFFE03404800004D592102EF6BF1832
:2041C0003A8801003A8837E01701C0DF170000DF0402C0DE3A2800F804FCFFDE1503C0DF04
:2041E000150200DF040200DF15FF3FE1040E60D117FF3FE1C05F040115FEBFE017FEBFE0AD
:204200002609001017FEBFE0170380102606001017FEBFE01703801017FF7FE117FE3FE1BC
:204220003AE83E100601000017FEBFE03A8837E01701C0DF170000DF0402C0DE3A2800F8CF
:2042400004FDFFDE1502C0DF150100DF040100DF15FF3FE117FFBFE02608001017FFBFE015
:20426000170480102605001017FFBFE01704801017FF3FE13AE83E103A8801003A880100CC
:204280003A8837E01701C0DF170000DF0402C0DE3A2800F804FFFFDE150000DF3A8839D8F3
:2042A0003A8801003A8837E0170000DF0401C0DE3A2800F804F9FFDE1506C0DF150500DFE2
:2042C000040500DF15FC3FE115FD7FE115FEBFE115FFFFE1170280E0150080D817FFFFE1D0
:2042E00017FEBFE117FD7FE117FC3FE1404604013A8837E01701C0DF170000DF0402C0DEAD
:204300003A2800F804F9FFDE150600DF040600DF15FE3FE115FF7FE117FFBFE015FABFE07C
:204320003A30050015FBBFE017FBFFE084FFBF003A7084183A70011017FBBFE015FCBFE0CA
:204340004400C00017FABFE03A9884183A880710172AA0D03AB08418152AA0D0172AA0D0CB
:20436000FA70011017FCBFE015FDBFE017FDBFE03A7001103A8805003A8801003A8837E08E
:20438000170000DF0401C0DE3A2800F804F9FFDE150600DF040600DF15FE3FE115FF7FE1C6
:2043A00017FFBFE015FABFE03A30050015FBBFE017FBFFE084FFBF003A7084183A70011048
:2043C00017FBBFE015FCBFE04400C00017FABFE03A9884183A3084003A880710172AA0D0E2
:2043E0003A708418152AA0D0172AA0D0FA70011017FCBFE015FDBFE017FDBFE03A700110CB
:204400003A8805003A8801003A8837E0170000DF0401C0DE3A2800F804FCFFDE150300DF72
:20442000040300DF15FE3FE115FF7FE1FA30050015FDBFE04400C00017FFBFE03A988418E8
:204440003A88071017FDBFE03A7084183AC00410CC3F80103A8837E0170000DF0401C0DE6F
:204460003A2800F804F5FFDE150AC0DF150900DF040900DF15FC3FE115FD7FE115FEBFE10F
:2044800015FFFFE184FABF0015F7BFE017FDBFE015F8BFE017F8BFE0080880101E2700103E
:2044A0003A30050015FBBFE017FBFFE084FFBF003A7084183A70011017FBBFE015FABFE04B
:2044C00034088000047F821017F8FFE0FA9006183A88C51017FEFFE01500C0103408800049
:2044E000047F821017F8FFE0FA9006183A88C5100401801017FFFFE01500C01017FEBFE057
:204500002605001017F8BFE03A880B1017FC3FE1403004010604000017F8BFE03A880B1098
:2045200017FC3FE1C038040115F7BFE017FABFE015F9BFE017F9BFE03A70011017F7BFE02C
:204540003A8837E01701C0DF170000DF0402C0DE3A2800F804FCFFDE1503C0DF150200DF4D
:20456000150100DC040200DF15FE3FE117FEBFE0D00080101E11001034080004048900848D
:2045800017FEBFE0040340013A880910C0E501013A888580040280101500001034080004DB
:2045A0000489008417FEBFE0040340013A880910C0E501013A888580150000103A880100BD
:2045C00004FFFFE61702C0DF170100DF170000DC0403C0DE3A2800F804FFFFDE150000DF7E
:2045E0003A8839D8FA7001003A8801003A8837E0170000DF0401C0DE3A2800F804FAFFDE13
:204600001505C0DF150400DF040400DF15FE3FE115FF7FE117FFBFE01700801015FCBFE04F
:2046200017FE3FE1007F04014400801015FDBFE0060D000017FCBFE01702801017FDFFE0DB
:204640003A880D1817FE7FE13A880910407704011E02001017FCBFE00607000017FCBFE0C6
:204660001700801015FCBFE017FCFFE017FFBFE01EF0BF183A8805003A8837E01701C0DF00
:20468000170000DF0402C0DE3A2800F804FEFFDE150100DF040100DF15FF3FE117FFBFE085
:2046A00084FEBF102804C0101E1A0018BA9006103404800004B191103A88851817008010E9
:2046C0003A6800100447100004471000144710001447100014471000044710000C47100073
:2046E00014471000044710000447100014471000044710000C47100014471000144710009A
:204700000447100044008000060300003A880500060100003A8805003A8837E0170000DF0D
:204720000401C0DE3A2800F83A880B203A880F003A880D003A8809008188040104FEFFDE37
:204740003A880B00150000DC1501C0DF3A882120009A0401340880000403821017000011C7
:20476000170F8020260100103AE83E103A88098000B20401C400C0012E1980393AB04421F6
:204780003A70C411260F0010030080200300C0281E15C01084FFBF31C4FFFF010604000084
:2047A000030080200300C028C4FFBF311E0EC01044000021440040291EF9FF313A8805009C
:2047C0003A2800F81700C020170080281EEEBF1804FFBF31040100210401402936F9BF3938
:2047E0001EE93F3006F53F003AC8C5103A2800F8CC00802026200010070080202620001019
:204800003A880520060200000700C0102618001844008010CC00C0101EFB3F181700C010B5
:20482000F4BFFF01C4BFFF393A30CA007420A0013A88C7190420A0313A7046193A708619B8
:204840001E090018040180101700C0103A88CB193A30C6003A70C6283A70861926F93F1870
:2048600006010000440080100700C0101EFD3F183AC805113A2800F83A88052006E73F008F
:204880003A8805003A2800F804FAFFDE150300DC34080004040302841700C080150440DCCF
:2048A0001505C0DF175280183A882320263700101701C010C4070001160EC0204400001AB6
:2048C0001E2200888400C0183A88C7183A88C718150100123A88C710150040193A8805007C
:2048E0001705C0DF170440DC170300DC0406C0DE3A2800F83400800004008010262600102A
:2049000004640001150040D9150180D91502C0D900000000170040D9170180D91702C0D98E
:20492000261D0010170000811501001044000002175240223A88070015004012155280201E
:20494000156200101563001026DE3F883A88C9183A8809213A880911152280214400800175
:20496000176240123A98CC303AB09249156240121542C021840000011ED23F891763001110
:204980003AB08C211563801106CE3F00045380181552801806C63F00C4FFBF0006D03F00D4
:2049A00004F5FFDE150900DF150640DD150380DC150AC0DF1508C0DD150780DD150500DD90
:2049C0001504C0DC150240DC150100DC150000D93A88392844008004C4FF7F053408800021
:2049E0000403821017000012175200450452C044261C00A0170180A0C4FFFF15160D00B821
:204A0000440000143A8821843A882184042040843A8863A43A8821A4261E00E017408080BD
:204A2000261C80E0C4FFFFBD04FF3F8404FF7F8C1EF97FBD340080000400801026090010A7
:204A4000170180A01E300010170080A0263200103A8809A015008098000000001700009DD5
:204A60001EE43FA0170AC0DF170900DF1708C0DD170780DD170640DD170500DD1704C0DC75
:204A8000170380DC170240DC170100DC040BC0DE3A2800F8170180A01700C080C4FFBF104F
:204AA0002614C0151500008026DE3F183A98C895176280A0170180A53A708420260B001063
:204AC000176380A03A7088201E0C002017004089170000D93AE83E18170180A01EBFBF156F
:204AE0001700809826CF3F1506BC3F003AE83E1806F93F001501C0A506EB3F00170000893C
:204B00003AE83E1806F43F00170080A03A8827A03A88291006B63F003A88050006FB3F0027
:204B200004FDFFDE150200DF040200DF15FF3FE13A88010017FFBFE015FEBFE017FEBFE0AA
:204B40002602001070F02A0006010000B0F02A0006FF3F002F6465762F7561727400000025
:204B60002F6465762F6F6E636869705F666C6173685F305F64617461000000002F646576B4
:204B80002F6E756C6C00000043000000000000000000000000002000000000000026100092
:204BA00040251000A0251000000000000000000000000000802020000000000000000000EB
:204BC0000000000000000000000000000100000000000000000000000000000000000000D4
:204BE0000000000000000000000000000000000000000000000000000000000000000000B5
:204C0000000000000000000000000000000000000000000000000000000000000000000094
:204C2000000000000000000000000000000000000000000000000000000000000000000074
:204C40000000000000000000000000000000000000000000000000000C0020000000000028
:204C600000000000F43310004C2E1000182F1000B42F10001C3110000000100000C00800F4
:204C8000000000000000000000000000000000000000000000000000000000000000000014
:204CA0000000000000000000000000000000000000000000000000000000000000000000F4
:204CC0000000000000000000000000000000000000000000000000000000000000000000D4
:204CE0000000000000000000000000000000000000000000000000000000000000000000B4
:204D0000000000000000000000000000102120000100000000000000FF3F00000100000002
:204D200000400000FF7F00000100000000800000FFDF02000100000000E00200FF9F0400CF
:204D40000100000000A00400FFBF080000100000F0072000F0072000280020000000000062
:204D600000000000000000000C401000000000000000000000000000FC01200000000000BA
:204D800000000000FC0120000000000000000000FC012000000000000000000000000000D9
:204DA0000000000000000000000000000000000000000000000000000000000000000000F3
:204DC0000000000000000000000000000000000000000000000000000000000000000000D3
:204DE0000000000000000000000000000000000000000000000000000000000000000000B3
:204E0000000000000000000000000000000000000000000000000000000000000000000092
:204E2000000000000000000000000000000000000000000000000000000000000000000072
:204E4000000000000000000000000000000000000000000000000000000000000000000052
:204E6000000000000000000000000000000000000000000000000000000000000000000032
:204E8000000000000000000000000000000000000000000000000000000000000000000012
:204EA0000000000000000000000000000000000000000000000000000000000000000000F2
:204EC0000000000000000000000000000000000000000000000000000000000000000000D2
:204EE0000000000000000000000000000000000000000000000000000000000090062000FC
:204F0000F806200060072000000000000000000000000000000000000000000000000000EC
:204F200000000000000000000000000034002000000000000000000000000000000000001D
:204F4000000000000000000000000000000000000000000000000000000000000000000051
:204F6000000000000000000000000000000000000000000000000000000000000000000031
:204F8000000000000000000000000000000000000000000000000000000000000100000010
:204FA000000000000E33CDAB34126DE6ECDE05000B000000000000000000000000000000C5
:204FC0000000000000000000000000000000000000000000000000000000000000000000D1
:204FE0000000000000000000000000000000000000000000000000000000000000000000B1
:20500000000000000000000000000000000000000000000000000000000000000000000090
:20502000000000000000000000000000000000000000000000000000000000000000000070
:20504000000000000000000000000000000000000000000000000000000000000000000050
:20506000000000000000000000000000000000000000000000000000000000000000000030
:20508000000000000000000000000000000000000000000000000000000000000000000010
:2050A0000000000000000000000000000000000000000000000000000000000000000000F0
:2050C0000000000000000000000000000000000000000000000000000000000000000000D0
:2050E0000000000000000000000000000000000000000000000000000000000000000000B0
:2051000000000000000000000000000000000000000000000000000000000000000000008F
:2051200000000000000000000000000000000000000000000000000000000000000000006F
:2051400000000000000000000000000000000000000000000000000000000000000000004F
:2051600000000000000000000000000000000000000000000000000000000000000000002F
:2051800000000000000000000000000000000000000000000000000000000000000000000F
:2051A0000000000000000000000000000000000000000000000000000000000000000000EF
:2051C0000000000000000000000000000000000000000000000000000000000000000000CF
:2051E0000000000000000000000000000000000000000000000000000000000000000000AF
:2052000000000000000000000000000000000000000000000000000000000000000000008E
:2052200000000000000000000000000000000000000000000000000000000000000000006E
:2052400000000000000000000000000000000000000000000000000000000000000000004E
:2052600000000000000000000000000000000000000000000000000000000000000000002E
:2052800000000000000000000000000000000000000000000000000000000000000000000E
:2052A0000000000000000000000000000000000000000000000000000000000000000000EE
:2052C0000000000000000000000000000000000000000000000000000000000000000000CE
:2052E0000000000000000000000000000000000000000000000000000000000000000000AE
:2053000000000000000000000000000000000000000000000000000000000000FFBF0800C7
:2053200000A00400BC0820002C01B400BC0920007C082000E0072000E0072000E80720005E
:20534000E8072000FC012000FC012000FFFFFFFF000000000008200000082000FFFFFFFFBC
:20536000A4032000A40320000000000000000000000000000000000000000000000000009F
:2053800000000000000000000000000000000000000000000000000000000000000000000D
:2053A0000000000000000000000000000000000000000000000000000000000000000000ED
:2053C0000000000000000000000000000000000000000000000000000000000000000000CD
:2053E0000000000000000000000000000000000000000000000000000000000000000000AD
:0200000280007C
:00000001FF
